:100000000C9483000C94A0000C94A0000C94A0000D
:100010000C94A0000C94A0000C94A0000C94A000E0
:100020000C94A0000C94A0000C94A0000C94A000D0
:100030000C94A0000C94A0000C94A0000C94A000C0
:100040000C94A0000C94A0000C94A0000C94A000B0
:100050000C94A0000C94A0000C94A0000C94A000A0
:100060000C94A0000C94A0003C666F6E7420636F2B
:100070006C6F723D2223303046463030223E207372
:100080003C2F666F6E743E00485454502F312E3012
:1000900020323030204F4B0D0A436F6E74656E7402
:1000A0002D547970653A20746578742F68746D6C7E
:1000B0000D0A0D0A3C703E447A6961B361206A659D
:1000C00062616E653C2F703E00485454502F312EB3
:1000D0003020323030204F4B0D0A436F6E74656E06
:1000E000742D547970653A20746578742F68746D36
:1000F0006C0D0A0D0A3C68313E323030204F4B3CCB
:100100002F68313E000011241FBECFEFD8E0DEBFC4
:10011000CDBF11E0A0E0B1E0E4E9FCE002C0059051
:100120000D92A831B107D9F722E0A8E1B1E001C0F2
:100130001D92AC3EB207E1F70E947B050C94480685
:100140000C9400002A98962F9F71982B9EBD0DB499
:1001500007FEFDCF1EBC0DB407FEFDCF67FD03C03B
:100160002A9A8EB508951EBC0DB407FEFDCFF8CFB8
:100170002A986F71682B6EBD0DB407FEFDCF4EBD82
:100180000DB407FEFDCF2A9A0895FB012A982AE3B1
:100190002EBD0DB407FEFDCF8E0F9F1FE817F90788
:1001A00039F01EBC0DB407FEFDCF2EB52193F6CF5E
:1001B00010822A9A08952A982AE72EBD0DB407FEC8
:1001C000FDCF860F971F6817790741F0FB0121913A
:1001D000BF012EBD0DB407FEFDCFF5CF2A9A0895BD
:1001E0001F93CF93DF93182F1076C12FD0E020916B
:1001F0001A0130E0C217D30789F043E06FE180EACB
:100200000E94B800AE0185E0559547958A95E1F7C3
:100210006FE180E80E94B80010931A01DF91CF913E
:100220001F910895CF93DF931F92CDB7DEB7682F4C
:1002300069830E94F000698180E00F90DF91CF9187
:100240000C94A2001F93CF93DF931F92CDB7DEB71C
:10025000182F69830E94F0004981612F80E40F907C
:10026000DF91CF911F910C94B800682F84ED0E940C
:10027000220161E082ED0E9422018EE38A95F1F76E
:1002800000C08AEE0E94120180FDFBCF60E082ED8B
:100290000E94220189ED0E94120190E008951F93AF
:1002A000CF93DF931F92CDB7DEB7162F682F84ED63
:1002B00079830E942201612F86ED0E9422017981BB
:1002C000672F87ED0E9422018AEE0E94120180FFB3
:1002D00005C08EE38A95F1F700C0F6CF0F90DF914D
:1002E000CF911F910895682F677085E70C942201C4
:1002F000CF93DF93EC01229A2A9A84B1886284B961
:1003000024982B982D9880E58CBD8DB581608DBD8E
:100310004FEF60E08FEF0E94B8008DEC8A95F1F707
:10032000109219011092180160E088E00E942201E9
:1003300060E089E00E94220160E08CE00E942201DE
:1003400060E08DE00E9422016EEF8AE00E942201AF
:1003500069E18BE00E9422016FEF84E00E9422019C
:1003600069E185E00E9422016FEF86E00E94220190
:100370006FE187E00E94220160EB88E30E94220186
:100380006FE388E20E94220160E389E20E94220179
:1003900069EF80E30E94220167EF81E30E9422015E
:1003A0006DE080EC0E94220160E081EC0E9422015D
:1003B00042E362EC80E80E94B80062E186EC0E94B1
:1003C00022016CE087EC0E94220162E184EC0E9431
:1003D00022016CED8AEC0E94220165E08BEC0E9408
:1003E0002201688184EE0E942201698185EE0E94CB
:1003F00022016A8182EE0E9422016B8183EE0E94BB
:1004000022016C8180EE0E9422016D8181EE0E94AA
:10041000220160E071E080E10E944F018FE10E94C3
:10042000F00040EC6BE180E80E94B80044E06FE12E
:1004300080E8DF91CF910C94B80082E70C94120110
:1004400081E10E94350121E0892B09F420E0822F0F
:1004500008950F931F93CF93DF93EC018B016FE10E
:1004600080E00E94A20083FF10C08CE10E94120174
:1004700081FFF5CF40E86FE180E80E94B80040E8D6
:100480006FE180EA0E94B800EACF6FEF82E00E943D
:10049000220169E183E00E9422016C2F615086E015
:1004A0000E942201CE018150964E692F87E00E9462
:1004B000220140E060E08AE70E94B800B801CE0166
:1004C0000E94DB0048E06FE180E8DF91CF911F914F
:1004D0000F910C94B80089E30E94120191E0811100
:1004E00001C090E0892F08959F92AF92BF92CF9262
:1004F000DF92EF92FF920F931F93CF93DF937C01D4
:100500006B0189E30E941201882309F467C060919E
:100510001801C091190180E00E9422016C2F81E036
:100520000E94220160E08AE30E94A200082F60E09E
:100530008AE30E94A20010E0182B10931901009387
:10054000180160E08AE30E94A200C82F60E08AE3FD
:100550000E94A200982E60E08AE30E94A200A82ECA
:1005600060E08AE30E94A200A7FE0FC0970121501D
:100570003109D0E0D92924972C173D0708F4E90167
:10058000B601CE010E94C50002C0C0E0D0E0602FDD
:100590008CE00E942201612F8DE00E9422017801EF
:1005A00081E0E81AF1088FEFE81689E1F80630F0EB
:1005B0006EEF8CE00E94220169E106C06FEF600FD0
:1005C0008CE00E9422016F2D8DE00E94220140E408
:1005D0006EE180E80E94B800CE0102C080E090E0A9
:1005E000DF91CF911F910F91FF90EF90DF90CF900F
:1005F000BF90AF909F900895FF920F931F93CF935A
:10060000DF93FB01413051F4AB014850510960E0E8
:1006100070E04F5E5F4F6F4F7F4F0FC0423051F41D
:10062000AB014850510960E070E04A5F5F4F6F4F87
:100630007F4F03C040E050E0BA01EF01DC01C2305F
:10064000D10598F00C9110E020E030E0322F212FFE
:10065000102F00271196FC9011970F29400F511F62
:10066000621F731F12962297EACFDF01AE7FA80F99
:10067000B91FE0FF0CC08C9190E0A0E0B0E0BA2F71
:10068000A92F982F8827480F591F6A1F7B1FCB015E
:10069000AA27BB270097A105B10519F06627772780
:1006A000F2CFCA0180959095DF91CF911F910F9164
:1006B000FF90089540930101FB01AFE1B1E021916A
:1006C0002D9321E0A332B207D1F7FC01A3E2B1E000
:1006D00081918D9381E0A932B807D1F708956932ED
:1006E0007105A8F0FC012485283089F42585263081
:1006F00071F4DC019696EFE1F1E09D918191981300
:1007000006C081E0E332F807C1F781E0089580E098
:100710000895FC016A327105B0F08485883099F43F
:100720008585811110C08685853469F47E96AFE198
:10073000B1E091918D91981306C081E0A332B80782
:10074000C1F781E0089580E00895CF93DF93E3E25D
:10075000F1E0DC0116962C91EC012993CE01219158
:100760002D93D1E0E932FD07B1F7DF91CF910895E4
:10077000CF93DF93EC01188E198E80E48C8B1D8A49
:100780008E8B40E064E170E0CE010E960E94FC0288
:10079000988F898FDF91CF910895CF93DF93EC01EC
:1007A0006E96EFE1F1E0DC015A962C9129932191AC
:1007B0002D9321E0E332F207C1F7DF91CF910C9442
:1007C000B803CF93DF93FC0182A184A312A283A17B
:1007D00085A38091010183A3DF019A96EF01AE9674
:1007E000CF0186963E91630F711D3A916883222353
:1007F00011F03C9301C01C92672F7727A817B90707
:1008000089F7211109C016A217A28091000180A7C3
:1008100011A68E5F8093000112AA13AA442351F0FF
:1008200082E086AB84E087AB85E080AF80E881AF73
:1008300080E601C080E586A7DF91CF910895CF9330
:10084000DF93EC010E94A5031C8A82E08D8BCE0110
:10085000809643E251E0DE0156962C91FC012193F3
:10086000CF01FA012191AF012D93F1E049325F07E9
:10087000A1F7CE0186964FE151E0DE015C962C9106
:10088000FC012193CF01FA012191AF012D93F1E0F9
:1008900043325F07A1F7BE018AE290E0DF91CF917A
:1008A0000C9429020F931F93CF93DF93EC018B01DC
:1008B0000E94A503CE010E94CD031AA29CA1983FDD
:1008C00018F08DA18F5F8DA3985F9CA3BE01C80116
:1008D000DF91CF911F910F910C942902DF92EF923B
:1008E000FF920F931F93CF93DF93EC01162FF72EF8
:1008F000042FE22ED32E0E94A5030D3D08F00CED2F
:10090000188A8CE1800F898BCE010E94CD038AA1C9
:100910008CA38BA18DA3DAA2EBA21EA288E0800F8C
:100920008FA318A619A6912FDE019A96E12FFF2D0D
:100930008E2F891B801718F481918D93F9CF10E0C9
:10094000B801605F7F4F41E0CE014A960E94FC02F1
:1009500098A789A7BE01C8018A96DF91CF911F9100
:100960000F91FF90EF90DF900C942902CF93DF93CB
:10097000EC010E94A503188A8CE2898BCE010E94AB
:10098000CD0382E18FA720E041E061E070E0CE017D
:100990000E94E10342E060E270E0CE014A960E94CC
:1009A000FC029AAB8BABBE018AE390E0DF91CF9162
:1009B0000C94290280911B0190911C01892B31F02C
:1009C00080911D0190911E018296089580E090E033
:1009D0000895FC01208930E0322F22278189282BBD
:1009E0002451310986A582958F7044E0849FC0010F
:1009F000112490931E0180931D01281B390B1216A0
:100A000013062CF430931C0120931B0108951092BF
:100A10001C0110921B0108959C01CB01461B570B32
:100A2000FA01E80FF91FE491EE2339F0D901A80F7C
:100A3000B91FD696EC930196F3CF0895FA01219150
:100A4000AF01222339F0FC01E60FF71F26AB6F5FE1
:100A50007F4FF4CFCB010895CF93DF93EC010E9439
:100A6000A50380E18FA760911B0170911C0121E01B
:100A700040E06115710511F461E070E0CE010E9463
:100A8000E103188A88E2898BCE010E94CD0342E0FF
:100A90006CE170E0CE014A960E94FC029AAB8BABEF
:100AA000BE0186E390E0DF91CF910C9429020F9371
:100AB0001F93CF93DF93EC018B0189E18FA7CB01CB
:100AC0008896988B898BCE010E94B8031AAA1BAA1C
:100AD000B801645E7F4F42E0CE014A960E94FC025C
:100AE0009AAB8BABBE01C801C696DF91CF911F9127
:100AF0000F910C94290280E88093610010926100AC
:100B000082E38A95F1F7219A299A86E091E00E9482
:100B1000780182E00E94730182E38A95F1F766E72B
:100B200074E084E10E944F0182E38A95F1F72998ED
:100B300040E562E071E086E091E00E945A0311E036
:100B400069E271E082EC91E00E947402EC0100978E
:100B5000B9F3BC0189E291E00E946F03882329F078
:100B600089E291E00E941F04EBCFBE0189E291E08F
:100B70000E948903882321F3112319F0299A10E098
:100B800002C0299811E080914001813051F4809198
:100B90004B018830A9F6BE0189E291E00E9452041F
:100BA000CFCF863009F04FC080914D018111C8CF61
:100BB00080914E01803521F68091580181FF05C05A
:100BC00089E291E00E94B604BBCF84FFB9CF89E2ED
:100BD00091E00E94E9040E94DA04009749F48091B0
:100BE000580180FFADCF89E291E00E942C05A8CF8B
:100BF000BC01675D7E4F44E050E08CE091E00E94D4
:100C00003A06892B29F049EC50E060E070E00CC016
:100C100048E850E060E070E089E291E00E940C0555
:100C200048E650E062E070E089E291E00E940C0545
:100C3000EC0189E291E00E942C05BE0189E291E07D
:100C40000E9457057DCF813109F07ACF8091500104
:100C500090915301943709F073CF8D3009F070CF24
:100C600020EB34E046E061E171E089E291E00E942E
:100C70006E0466CFFB01DC014150504030F08D9195
:100C80000190801919F40020B9F7881B990B089579
:040C9000F894FFCF06
:100C94000A50C0A80218545558100024474554203F
:080CA4000068656C6C6F000034
:00000001FF
