:100000000C9456020C9473020C9473020C947302B9
:100010000C9473020C9473020C9473020C9473028C
:100020000C9473020C9473020C9473020C9473027C
:100030000C9473020C9473020C9473020C9473026C
:100040000C9473020C9473020C94F5070C947302D5
:100050000C9473020C9473020C9473020C9473024C
:100060000C9473020C9473023C666F6E7420636F81
:100070006C6F723D2223463030303030223E2E39B4
:100080003C2F666F6E743E003C666F6E7420636F2B
:100090006C6F723D2223463030303030223E2E3895
:1000A0003C2F666F6E743E003C666F6E7420636F0B
:1000B0006C6F723D2223463030303030223E2E3776
:1000C0003C2F666F6E743E003C666F6E7420636FEB
:1000D0006C6F723D2223463030303030223E2E3657
:1000E0003C2F666F6E743E003C666F6E7420636FCB
:1000F0006C6F723D2223463030303030223E2E3538
:100100003C2F666F6E743E003C666F6E7420636FAA
:100110006C6F723D2223463030303030223E2E3418
:100120003C2F666F6E743E003C666F6E7420636F8A
:100130006C6F723D2223463030303030223E2E33F9
:100140003C2F666F6E743E003C666F6E7420636F6A
:100150006C6F723D2223463030303030223E2E32DA
:100160003C2F666F6E743E003C666F6E7420636F4A
:100170006C6F723D2223463030303030223E2E31BB
:100180003C2F666F6E743E003C666F6E7420636F2A
:100190006C6F723D2223463030303030223E2E309C
:1001A0003C2F666F6E743E003C666F6E7420636F0A
:1001B0006C6F723D2223463030303030223E393C65
:1001C0002F666F6E743E003C666F6E7420636F6CBA
:1001D0006F723D2223463030303030223E383C2F83
:1001E000666F6E743E003C666F6E7420636F6C6F5A
:1001F000723D2223463030303030223E373C2F666D
:100200006F6E743E003C666F6E7420636F6C6F722D
:100210003D2223463030303030223E363C2F666F50
:100220006E743E003C666F6E7420636F6C6F723D3F
:100230002223463030303030223E353C2F666F6E00
:10024000743E003C666F6E7420636F6C6F723D226B
:1002500023463030303030223E343C2F666F6E748F
:100260003E003C666F6E7420636F6C6F723D22239C
:10027000463030303030223E333C2F666F6E743E55
:10028000003C666F6E7420636F6C6F723D22234674
:100290003030303030223E323C2F666F6E743E007C
:1002A0003C666F6E7420636F6C6F723D2223463024
:1002B00030303030223E313C2F666F6E743E003C51
:1002C000666F6E7420636F6C6F723D222346303010
:1002D000303030223E303C2F666F6E743E003C66FC
:1002E0006F6E7420636F6C6F723D22234630303026
:1002F0003030223E20393C2F666F6E743E003C66E3
:100300006F6E7420636F6C6F723D22234630303005
:100310003030223E20383C2F666F6E743E003C66C3
:100320006F6E7420636F6C6F723D222346303030E5
:100330003030223E20373C2F666F6E743E003C66A4
:100340006F6E7420636F6C6F723D222346303030C5
:100350003030223E20363C2F666F6E743E003C6685
:100360006F6E7420636F6C6F723D222346303030A5
:100370003030223E20353C2F666F6E743E003C6666
:100380006F6E7420636F6C6F723D22234630303085
:100390003030223E20343C2F666F6E743E003C6647
:1003A0006F6E7420636F6C6F723D22234630303065
:1003B0003030223E20333C2F666F6E743E003C6628
:1003C0006F6E7420636F6C6F723D22234630303045
:1003D0003030223E20323C2F666F6E743E003C6609
:1003E0006F6E7420636F6C6F723D22234630303025
:1003F0003030223E20313C2F666F6E743E003C66EA
:100400006F6E7420636F6C6F723D22234630303004
:100410003030223E20303C2F666F6E743E005445D3
:100420004D503A2000485454502F312E3020323055
:1004300030204F4B0D0A436F6E74656E742D5479E6
:1004400070653A20746578742F68746D6C0D0A0DB0
:100450000A3C703E2D2D54656D7065726174757225
:1004600061207069656361434F2D2D3C2F703E0004
:10047000485454502F312E3020323030204F4B0D05
:100480000A436F6E74656E742D547970653A2074EA
:100490006578742F68746D6C0D0A0D0A3C68313EE6
:1004A000323030204F4B3C2F68313E0011241FBEAC
:1004B000CFEFD8E0DEBFCDBF11E0A0E0B1E0E4E6D1
:1004C000F5E102C005900D92A634B107D9F723E0FB
:1004D000A6E4B1E001C01D92A832B207E1F70E9484
:1004E00025080C94B00A0C9400002A98962F9F714E
:1004F000982B9EBD0DB407FEFDCF1EBC0DB407FEAC
:10050000FDCF67FD03C02A9A8EB508951EBC0DB4B9
:1005100007FEFDCFF8CF2A986F71682B6EBD0DB422
:1005200007FEFDCF4EBD0DB407FEFDCF2A9A0895FC
:10053000FB012A982AE32EBD0DB407FEFDCF8E0FD6
:100540009F1FE817F90739F01EBC0DB407FEFDCF59
:100550002EB52193F6CF10822A9A08952A982AE779
:100560002EBD0DB407FEFDCF860F971F68177907C4
:1005700041F0FB012191BF012EBD0DB407FEFDCF5F
:10058000F5CF2A9A08951F93CF93DF93182F1076F3
:10059000C12FD0E02091480130E0C217D30789F085
:1005A00043E06FE180EA0E948B02AE0185E0559541
:1005B00047958A95E1F76FE180E80E948B021093DE
:1005C0004801DF91CF911F910895CF93DF931F9240
:1005D000CDB7DEB7682F69830E94C302698180E0CE
:1005E0000F90DF91CF910C9475021F93CF93DF93FF
:1005F0001F92CDB7DEB7182F69830E94C3024981CD
:10060000612F80E40F90DF91CF911F910C948B02AA
:10061000682F84ED0E94F50261E082ED0E94F502F0
:1006200080E58A95F1F78AEE0E94E50280FDFBCF16
:1006300060E082ED0E94F50289ED0E94E50290E003
:1006400008951F93CF93DF931F92CDB7DEB7162F78
:10065000682F84ED79830E94F502612F86ED0E9458
:10066000F5027981672F87ED0E94F5028AEE0E94DC
:10067000E50280FF04C080E58A95F1F7F7CF0F907F
:10068000DF91CF911F910895682F677085E70C94D3
:10069000F502CF93DF93EC01229A2A9A84B1886203
:1006A00084B924982B982D9880E58CBD8DB58160F8
:1006B0008DBD4FEF60E08FEF0E948B028DEC8A952D
:1006C000F1F7109247011092460160E088E00E9425
:1006D000F50260E089E00E94F50260E08CE00E9493
:1006E000F50260E08DE00E94F5026EEF8AE00E9464
:1006F000F50269E18BE00E94F5026FEF84E00E9451
:10070000F50269E185E00E94F5026FEF86E00E9444
:10071000F5026FE187E00E94F50260EB88E30E943A
:10072000F5026FE388E20E94F50260E389E20E942D
:10073000F50269EF80E30E94F50267EF81E30E9412
:10074000F5026DE080EC0E94F50260E081EC0E9411
:10075000F50242E362EC80E80E948B0262E186ECE3
:100760000E94F5026CE087EC0E94F50262E184ECE5
:100770000E94F5026CED8AEC0E94F50265E08BECBC
:100780000E94F502688184EE0E94F502698185EE7F
:100790000E94F5026A8182EE0E94F5026B8183EE6F
:1007A0000E94F5026C8180EE0E94F5026D8181EE5F
:1007B0000E94F50260E071E080E10E9421038FE178
:1007C0000E94C30240EC6BE180E80E948B0244E08F
:1007D0006FE180E8DF91CF910C948B0282E70C945B
:1007E000E50281E10E94080321E0892B09F420E061
:1007F000822F08950F931F93CF93DF93EC018B010A
:100800006FE180E00E94750283FF10C08CE10E94BE
:10081000E50281FFF5CF40E86FE180E80E948B029E
:1008200040E86FE180EA0E948B02EACF6FEF82E03E
:100830000E94F50269E183E00E94F5026C2F61508D
:1008400086E00E94F502CE018150964E692F87E026
:100850000E94F50240E060E08AE70E948B02B80146
:10086000CE010E94AE0248E06FE180E8DF91CF91B7
:100870001F910F910C948B0289E30E94E50291E095
:10088000811101C090E0892F08959F92AF92BF928D
:10089000CF92DF92EF92FF920F931F93CF93DF934C
:1008A0007C016B0189E30E94E502882309F467C09B
:1008B00060914601C091470180E00E94F5026C2FD3
:1008C00081E00E94F50260E08AE30E947502082F31
:1008D00060E08AE30E94750210E0182B1093470134
:1008E0000093460160E08AE30E947502C82F60E031
:1008F0008AE30E947502982E60E08AE30E947502E6
:10090000A82E60E08AE30E947502A7FE0FC097013F
:1009100021503109D0E0D92924972C173D0708F43C
:10092000E901B601CE010E94980202C0C0E0D0E009
:10093000602F8CE00E94F502612F8DE00E94F5028D
:10094000780181E0E81AF1088FEFE81689E1F806EE
:1009500030F06EEF8CE00E94F50269E106C06FEFA7
:10096000600F8CE00E94F5026F2D8DE00E94F50271
:1009700040E46EE180E80E948B02CE0102C080E07C
:1009800090E0DF91CF911F910F91FF90EF90DF905A
:10099000CF90BF90AF909F900895FF920F931F93B9
:1009A000CF93DF93FB01413051F4AB014850510923
:1009B00060E070E04F5E5F4F6F4F7F4F0FC042307F
:1009C00051F4AB014850510960E070E04A5F5F4F5D
:1009D0006F4F7F4F03C040E050E0BA01EF01DC01F0
:1009E000C230D10598F00C9110E020E030E0322FB9
:1009F000212F102F00271196FC9011970F29400FDF
:100A0000511F621F731F12962297EACFDF01AE7F3C
:100A1000A80FB91FE0FF0CC08C9190E0A0E0B0E0FF
:100A2000BA2FA92F982F8827480F591F6A1F7B1F9D
:100A3000CB01AA27BB270097A105B10519F06627AE
:100A40007727F2CFCA0180959095DF91CF911F91C2
:100A50000F91FF90089540930101FB01ADE4B1E0D7
:100A600021912D9321E0A135B207D1F7FC01A1E539
:100A7000B1E081918D9381E0A735B807D1F7089552
:100A800069327105A8F0FC012485283089F4258598
:100A9000263071F4DC019696EDE4F1E09D918191B0
:100AA000981306C081E0E135F807C1F781E00895A9
:100AB00080E00895FC016A327105B0F084858830C9
:100AC00099F48585811110C08685853469F47E96F8
:100AD000ADE4B1E091918D91981306C081E0A1350C
:100AE000B807C1F781E0089580E00895CF93DF93C0
:100AF000E1E5F1E0DC0116962C91EC012993CE01A1
:100B000021912D93D1E0E735FD07B1F7DF91CF912A
:100B10000895CF93DF93EC01188E198E80E48C8BAF
:100B20001D8A8E8B40E064E170E0CE010E960E943B
:100B3000CD04988F898FDF91CF910895CF93DF9364
:100B4000EC016E96EDE4F1E0DC015A962C912993CC
:100B500021912D9321E0E135F207C1F7DF91CF918B
:100B60000C948905CF93DF93FC0182A184A312A288
:100B700083A185A38091010183A3DF019A96EF01F0
:100B8000AE96CF0186963E91630F711D3A916883B0
:100B9000222311F03C9301C01C92672F7727A817DE
:100BA000B90789F7211109C016A217A28091000187
:100BB00080A711A68E5F8093000112AA13AA442376
:100BC00051F082E086AB84E087AB85E080AF80E8BF
:100BD00081AF80E601C080E586A7DF91CF910895BF
:100BE000CF93DF93EC010E9476051C8A82E08D8B07
:100BF000CE01809641E551E0DE0156962C91FC0134
:100C00002193CF01FA012191AF012D93F1E04735F6
:100C10005F07A1F7CE0186964DE451E0DE015C96B8
:100C20002C91FC012193CF01FA012191AF012D9369
:100C3000F1E041355F07A1F7BE018AE290E0DF9164
:100C4000CF910C94FA030F931F93CF93DF93EC0192
:100C50008B010E947605CE010E949E051AA29CA1DE
:100C6000983F18F08DA18F5F8DA3985F9CA3BE0164
:100C7000C801DF91CF911F910F910C94FA03DF927D
:100C8000EF92FF920F931F93CF93DF93EC01162FF8
:100C9000F72E042FE22ED32E0E9476050D3D08F08C
:100CA0000CED188A8CE1800F898BCE010E949E0585
:100CB0008AA18CA38BA18DA3DAA2EBA21EA288E04D
:100CC000800F8FA318A619A6912FDE019A96E12F07
:100CD000FF2D8E2F891B801718F481918D93F9CFEA
:100CE00010E0B801605F7F4F41E0CE014A960E945C
:100CF000CD0498A789A7BE01C8018A96DF91CF913C
:100D00001F910F91FF90EF90DF900C94FA03CF9317
:100D1000DF93EC010E947605188A8CE2898BCE0164
:100D20000E949E0582E18FA720E041E061E070E033
:100D3000CE010E94B20542E060E270E0CE014A9628
:100D40000E94CD049AAB8BABBE018AE390E0DF91A9
:100D5000CF910C94FA038091490190914A01892B1B
:100D600031F080914B0190914C018296089580E082
:100D700090E00895FC01208930E0322F22278189FC
:100D8000282B2451310986A582958F7044E0849FD9
:100D9000C001112490934C0180934B01281B390B07
:100DA000121613062CF430934A012093490108953A
:100DB00010924A011092490108959C01CB01461BF3
:100DC000570BFA01E80FF91FE491EE2339F0D9012E
:100DD000A80FB91FD696EC930196F3CF0895FA01A8
:100DE0002191AF01222339F0FC01E60FF71F26AB5A
:100DF0006F5F7F4FF4CFCB010895CF93DF93EC016A
:100E00000E94760580E18FA76091490170914A01A7
:100E100021E040E06115710511F461E070E0CE0160
:100E20000E94B205188A88E2898BCE010E949E0535
:100E300042E06CE170E0CE014A960E94CD049AAB8C
:100E40008BABBE0186E390E0DF91CF910C94FA0367
:100E50000F931F93CF93DF93EC018B0189E18FA751
:100E6000CB018896988B898BCE010E9489051AAA9E
:100E70001BAAB801645E7F4F42E0CE014A960E94F1
:100E8000CD049AAB8BABBE01C801C696DF91CF9162
:100E90001F910F910C94FA0380FF02C0289A01C0A1
:100EA000289881FF02C0299A01C0299882FF02C0B8
:100EB000409A01C0409883FF02C0419A089541982A
:100EC0000895CF93C82F5E9A82958F700E944C0729
:100ED0005E985E9A8C2F0E944C075E9887EC90E09B
:100EE0000197F1F700C00000CF9108955F980C942E
:100EF00061075F9A0C946107CF93DF93EC018991AE
:100F0000882319F00E947907FACFDF91CF910895D5
:100F100090E4699F800D112480680C94760781E02D
:100F20000E9476078FE39FE10197F1F700C0000070
:100F3000089582E00E9476078FE39FE10197F1F721
:100F400000C000000895CF93209A219A389A399AC8
:100F5000569A579A8FE59AEE0197F1F700C0000074
:100F60005F985E98C3E05E9A83E00E944C075E98AB
:100F70008FE19EE40197F1F700C00000C15099F79E
:100F80005E9A82E00E944C075E988FE99FE001978D
:100F9000F1F700C0000088E20E94760788E00E9416
:100FA000760781E00E9476078FE39FE10197F1F7D2
:100FB00000C0000086E00E9476078CE0CF910C9480
:100FC00076079093C5008093C400E1ECF0E088E1DF
:100FD000808386E08093C20080818068808308954A
:100FE0008091C0008091C60008951F920F920FB6A5
:100FF0000F9211248F93EF93FF93809157018111EA
:101000001CC0E0915801F0E08091C600E25EFC4F08
:101010008083E0915801F0E0E25EFC4F80818A30ED
:1010200039F48091580180931C031092580105C037
:10103000809158018F5F80935801FF91EF918F91BC
:101040000F900FBE0F901F901895CF93DF93CDB7E1
:10105000DEB762970FB6F894DEBF0FBECDBF80E853
:10106000809361001092610082E38A95F1F7219AE2
:10107000299A86E091E00E94490382E00E9444039D
:1010800082E38A95F1F766E774E084E10E94210328
:1010900082E38A95F1F7299841E562E071E086E004
:1010A00091E00E942B050E94A30787E690E00E9432
:1010B000E10778943D9A3C9A80E1ECE0F1E0DE01B2
:1010C000119601900D928A95E1F78E010F5F1F4FE7
:1010D0007E0121E1E20EF11CF80181918F010E9455
:1010E0007907FFEF21EE84E0F15020408040E1F7E6
:1010F00000C000000E151F0579F79FEFE3EDF0E348
:101100009150E040F040E1F700C000000E948F07DE
:10111000912CAA24A3948AE0882E90E1B92EE09025
:101120001E03F12C20E3E21AF10800911F0310E0E6
:10113000005311098E9C60018F9CD00C1124C00EAD
:10114000D11E80E80E9476078CE191E00E947C0726
:1011500080EC0E9476078DE291E00E947C07712C62
:1011600080911C03781649F0E72DF0E0E25EFC4F19
:1011700080810E9479077394F3CF84E391E00E9409
:101180007C0785E2C816D10481F5911039C08091A1
:1011900021038033A9F588B18B2588B99FEFE1EE53
:1011A000F4E09150E040F040E1F700C0000088B169
:1011B0008B2588B92FEF81EE94E02150804090403C
:1011C000E1F700C0000088B18B2588B9EFEFF1EEA0
:1011D00024E0E150F0402040E1F700C0000088B179
:1011E0008B2588B9992493940CC086E2C816D10443
:1011F0003CF080912103803318F04598912C01C078
:10120000459A9FEFE9E6F8E19150E040F040E1F7C0
:1012100000C0000069E571E082EC91E00E944504A5
:101220006C01009709F47BCFBC0189E591E00E9435
:101230004005882329F089E591E00E94F0056FCFF1
:10124000B60189E591E00E945A05882309F467CF29
:10125000AA2019F0299AA12C03C02998AA24A394A2
:1012600080917001813059F480917B01883009F0C0
:1012700056CFB60189E591E00E94230650CF863013
:1012800009F049C180917D01811149CF80917E0192
:10129000813509F044CF8091880181FF05C089E53F
:1012A00091E00E9487063BCF84FF39CF89E591E02A
:1012B0000E94BA060E94AB06009749F4809188010B
:1012C00080FF2DCF89E591E00E94FD0628CFBC016B
:1012D000675A7E4F44E050E08BE391E00E94A20AFF
:1012E000892B29F040E754E060E070E002C145E25C
:1012F00054E060E070E089E591E00E94DD064EE197
:1013000054E0BC0189E591E00E94DD06BC01E114D6
:10131000F10419F44EEF53E03EC021E0E216F1046F
:1013200019F44EED53E037C082E0E816F10419F4E9
:101330004EEB53E030C093E0E916F10419F44EE9A6
:1013400053E029C0E4E0EE16F10419F44EE753E04F
:1013500022C0F5E0EF16F10419F44EE553E01BC08E
:1013600026E0E216F10419F44EE353E014C087E0DE
:10137000E816F10419F44EE153E00DC098E0E916C7
:10138000F10419F44EEF52E006C0E9E0EE16F10464
:1013900039F44EED52E089E591E00E94DD06BC0192
:1013A0000115110519F44FEB52E035C0013011055C
:1013B00019F440EA52E02FC00230110519F441E857
:1013C00052E029C00330110519F442E652E023C06F
:1013D0000430110519F443E452E01DC00530110535
:1013E00019F444E252E017C00630110519F445E043
:1013F00052E011C00730110519F446EE51E00BC060
:101400000830110519F447EC51E005C00930110509
:1014100039F448EA51E089E591E00E94DD06BC011B
:1014200080912103803339F448E851E089E591E067
:101430000E94DD06BC0180912103813339F448E626
:1014400051E089E591E00E94DD06BC018091210315
:10145000823339F448E451E089E591E00E94DD06E9
:10146000BC0180912103833339F448E251E089E5DE
:1014700091E00E94DD06BC0180912103843339F4A0
:1014800048E051E089E591E00E94DD06BC018091D1
:101490002103853339F448EE50E089E591E00E945C
:1014A000DD06BC0180912103863339F448EC50E01D
:1014B00089E591E00E94DD06BC018091210387331C
:1014C00039F448EA50E089E591E00E94DD06BC016C
:1014D00080912103883339F448E850E089E591E0B0
:1014E0000E94DD06BC0180912103893339F448E66E
:1014F00050E089E591E00E94DD06BC0189E591E0BC
:10150000698B7A8B0E94FD0669897A8989E591E069
:101510000E94280704CE813109F001CE809180011C
:1015200090918301943709F0FACD8D3009F0F7CD11
:1015300020EB34E046E060E471E089E591E00E9450
:101540003F06EDCDFB01DC014150504030F08D9164
:101550000190801919F40020B9F7881B990B0895A0
:04156000F894FFCF2D
:101564000A50C0A801185455581000242D2D546554
:101574006D70207069656361434F2D2D2D2D546569
:101584006D70207069656361434F2D2D002A2A2AEE
:101594002A2A2000202A2A2A2A2A004745542000E1
:0615A40068656C6C6F002D
:00000001FF
