:1000000019C02BC02AC029C028C027C026C025C0BF
:1000100024C023C022C021C020C01FC01EC01DC0DC
:100020001CC01BC01AC019C018C017C016C015C00C
:1000300014C013C011241FBECFEFD4E0DEBFCDBF6C
:1000400011E0A0E0B1E0E4E9F1E002C005900D921A
:10005000AA31B107D9F786D09BC0D2CF80FF02C0AA
:10006000429A01C0429881FF02C0439A01C043985E
:1000700082FF02C0449A01C0449883FF02C0459A9F
:10008000089545980895CF93C82F289A82958F7028
:10009000E5DF2898289A8C2FE1DF289885E88A9553
:1000A000F1F70000CF9108952A98EDCF2A9AEBCF6F
:1000B000CF93DF93EC018991882311F0F7DFFBCF19
:1000C000DF91CF91089590E4699F800D112480689D
:1000D000EBCF81E0E9DF8FE99FE00197F1F700C006
:1000E0000000089582E0E0DF8FE99FE00197F1F7DB
:1000F00000C000000895CF933A9A3B9A3C9A3D9AEB
:10010000209A229A8FE295E70197F1F700C000004C
:100110002A982898C3E0289A83E0A0DF28988FE0E7
:1001200097E20197F1F700C00000C150A1F7289AAB
:1001300082E094DF28988FEC97E00197F1F700C0F8
:10014000000088E2B1DF88E0AFDF81E0ADDF8FE95A
:100150009FE00197F1F700C0000086E0A5DF8CE08A
:10016000CF91A2CFC8DFB5DF84E89EDF80E091E0C9
:100170009FDF80EC99DF89E091E09ADF2FEF89E63D
:1001800098E1215080409040E1F700C00000EBCFA3
:04019000F894FFCF11
:100194004C434420546573740020636F7320736967
:0A01A4006520647A69656A65200031
:00000001FF
