:100000000C9434000C9451000C9451000C94510049
:100010000C9451000C9451000C9451000C9451001C
:100020000C9451000C9451000C9451000C9451000C
:100030000C9451000C9451000C9451000C945100FC
:100040000C9451000C9451000C94FC000C94510041
:100050000C9451000C9451000C9451000C945100DC
:100060000C9451000C94510011241FBECFEFD8E026
:10007000DEBFCDBF11E0A0E0B1E0E4EDF3E002C0EF
:1000800005900D92A033B107D9F721E0A0E3B1E0CC
:1000900001C01D92AE33B207E1F70E942C010C940F
:1000A000E8010C94000080FF02C0289A01C0289843
:1000B00081FF02C0299A01C0299882FF02C0409A9C
:1000C00001C0409883FF02C0419A08954198089565
:1000D000CF93C82F5E9A82958F700E9453005E98CE
:1000E0005E9A8C2F0E9453005E9887EC90E00197F7
:1000F000F1F700C00000CF9108955F980C9468005C
:100100005F9A0C946800CF93DF93EC018991882368
:1001100019F00E948000FACFDF91CF91089590E40A
:10012000699F800D112480680C947D0081E00E94FD
:100130007D008FE39FE10197F1F700C00000089573
:1001400082E00E947D008FE39FE10197F1F700C0FC
:1001500000000895CF93209A219A389A399A569A96
:10016000579A8FE59AEE0197F1F700C000005F986B
:100170005E98C3E05E9A83E00E9453005E988FE130
:100180009EE40197F1F700C00000C15099F75E9A14
:1001900082E00E9453005E988FE99FE00197F1F79B
:1001A00000C0000088E20E947D0088E00E947D007F
:1001B00081E00E947D008FE39FE10197F1F700C08D
:1001C000000086E00E947D008CE0CF910C947D00C1
:1001D0009093C5008093C400E1ECF0E088E1808357
:1001E00086E08093C200808180688083089580913A
:1001F000C0008091C60008951F920F920FB60F9213
:1002000011248F93EF93FF938091300181111CC0D3
:10021000E0913101F0E08091C600EC5CFE4F8083FC
:10022000E0913101F0E0EC5CFE4F80818A3039F4DE
:1002300080913101809332011092310105C080918B
:1002400031018F5F80933101FF91EF918F910F907A
:100250000FBE0F901F901895CF93DF93CDB7DEB7E9
:1002600060970FB6F894DEBF0FBECDBF0E94AA0004
:1002700087E690E00E94E80078943D9A3C9A80E1FD
:10028000E0E0F1E0DE01119601900D928A95E1F730
:100290008E010F5F1F4F7E0121E1E20EF11CF8017C
:1002A00081918F010E948000FFEF21EE84E0F150E8
:1002B00020408040E1F700C000000E151F0579F7CF
:1002C0009FEFE3EDF0E39150E040F040E1F700C034
:1002D00000000E949600D12C8AE0C82E90E1F92EF1
:1002E000209134018091350130E020533109C29EC4
:1002F0008001C39E100D112490E0C097080F191FB4
:1003000080E80E947D0080E191E00E94830080EC03
:100310000E947D0081E291E00E948300E12C8091A7
:100320003201E81649F0EE2DF0E0EC5CFE4F8081E2
:100330000E948000E394F3CF88E291E00E94830062
:100340000532110581F5D11038C080913701803315
:10035000A1F588B18F2588B92FEF81EE94E0215067
:1003600080409040E1F700C0000088B18F2588B937
:10037000EFEFF1EE24E0E150F0402040E1F700C063
:10038000000088B18F2588B98FEF91EEE4E08150AD
:100390009040E040E1F700C0000088B18F2588B9A7
:1003A000DD24D3940BC0063211053CF08091370157
:1003B000803318F04598D12C01C0459AFFEF29E60B
:1003C00088E1F15020408040E1F700C0000088CF74
:0403D000F894FFCFCF
:1003D4002D2D54656D70207069656361434F2D2D1B
:1003E4002D2D54656D70207069656361434F2D2D0B
:1003F400002A2A2A2A2A2000202A2A2A2A2A000015
:00000001FF
